{
  "contractName": "demo",
  "abi": [
    {
      "inputs": [],
      "stateMutability": "nonpayable",
      "type": "constructor"
    },
    {
      "inputs": [],
      "name": "getSomething",
      "outputs": [
        {
          "internalType": "uint256",
          "name": "",
          "type": "uint256"
        }
      ],
      "stateMutability": "view",
      "type": "function",
      "constant": true
    }
  ],
  "bytecode": "0x608060405234801561001057600080fd5b50600a60008190555060b6806100276000396000f3fe6080604052348015600f57600080fd5b506004361060285760003560e01c806301ec3b6c14602d575b600080fd5b60336047565b604051603e91906067565b60405180910390f35b60008054905090565b6000819050919050565b6061816050565b82525050565b6000602082019050607a6000830184605a565b9291505056fea2646970667358221220f477ca4ca84fc80a80a76ce201f76349957d2eeabdd4829a40ca0e499ea97e8a64736f6c634300080e0033",
  "immutableReferences": {},
  "source": "// SPDX-License-Identifier: UNLICENSED\r\n\r\npragma solidity 0.8.14;\r\n\r\ncontract demo {\r\n    uint something;\r\n\r\n    constructor(){\r\n        something = 10;\r\n    }\r\n\r\n    function getSomething() public view returns(uint){\r\n        return something;\r\n    }\r\n}",
  "sourcePath": "C:\\Users\\Manraj\\Desktop\\solidity\\contracts\\demo.sol",
  "compiler": {
    "name": "solc",
    "version": "0.8.14+commit.80d49f37.Emscripten.clang"
  },
  "schemaVersion": "3.4.7",
  "updatedAt": "2022-06-01T07:19:07.975Z",
  "networkType": "ethereum",
  "devdoc": {
    "kind": "dev",
    "methods": {},
    "version": 1
  },
  "userdoc": {
    "kind": "user",
    "methods": {},
    "version": 1
  }
}