{
  "contractName": "Lottery",
  "abi": [
    {
      "inputs": [],
      "stateMutability": "nonpayable",
      "type": "constructor"
    },
    {
      "inputs": [],
      "name": "manager",
      "outputs": [
        {
          "internalType": "address",
          "name": "",
          "type": "address"
        }
      ],
      "stateMutability": "view",
      "type": "function"
    },
    {
      "inputs": [
        {
          "internalType": "uint256",
          "name": "",
          "type": "uint256"
        }
      ],
      "name": "participants",
      "outputs": [
        {
          "internalType": "address payable",
          "name": "",
          "type": "address"
        }
      ],
      "stateMutability": "view",
      "type": "function"
    },
    {
      "stateMutability": "payable",
      "type": "receive"
    },
    {
      "inputs": [],
      "name": "getBalance",
      "outputs": [
        {
          "internalType": "uint256",
          "name": "",
          "type": "uint256"
        }
      ],
      "stateMutability": "view",
      "type": "function"
    }
  ],
  "bytecode": "0x608060405234801561001057600080fd5b50336000806101000a81548173ffffffffffffffffffffffffffffffffffffffff021916908373ffffffffffffffffffffffffffffffffffffffff160217905550610632806100606000396000f3fe6080604052600436106100385760003560e01c806312065fe01461017e57806335c1d349146101a9578063481c6a75146101e657610179565b366101795760008054906101000a900473ffffffffffffffffffffffffffffffffffffffff1673ffffffffffffffffffffffffffffffffffffffff163373ffffffffffffffffffffffffffffffffffffffff16036100cb576040517f08c379a00000000000000000000000000000000000000000000000000000000081526004016100c29061038e565b60405180910390fd5b670de0b6b3a76400003414610115576040517f08c379a000000000000000000000000000000000000000000000000000000000815260040161010c90610420565b60405180910390fd5b6001339080600181540180825580915050600190039060005260206000200160009091909190916101000a81548173ffffffffffffffffffffffffffffffffffffffff021916908373ffffffffffffffffffffffffffffffffffffffff1602179055005b600080fd5b34801561018a57600080fd5b50610193610211565b6040516101a09190610459565b60405180910390f35b3480156101b557600080fd5b506101d060048036038101906101cb91906104a5565b6102a8565b6040516101dd9190610513565b60405180910390f35b3480156101f257600080fd5b506101fb6102e7565b604051610208919061054f565b60405180910390f35b60008060009054906101000a900473ffffffffffffffffffffffffffffffffffffffff1673ffffffffffffffffffffffffffffffffffffffff163373ffffffffffffffffffffffffffffffffffffffff16146102a2576040517f08c379a0000000000000000000000000000000000000000000000000000000008152600401610299906105dc565b60405180910390fd5b47905090565b600181815481106102b857600080fd5b906000526020600020016000915054906101000a900473ffffffffffffffffffffffffffffffffffffffff1681565b60008054906101000a900473ffffffffffffffffffffffffffffffffffffffff1681565b600082825260208201905092915050565b7f4d616e616765722063616e6e6f7420706172746963697061746520696e206c6f60008201527f74746572792e0000000000000000000000000000000000000000000000000000602082015250565b600061037860268361030b565b91506103838261031c565b604082019050919050565b600060208201905081810360008301526103a78161036b565b9050919050565b7f4d696e696d756d20616d6f756e7420746f20706172746963697061746520697360008201527f2031206574686572000000000000000000000000000000000000000000000000602082015250565b600061040a60288361030b565b9150610415826103ae565b604082019050919050565b60006020820190508181036000830152610439816103fd565b9050919050565b6000819050919050565b61045381610440565b82525050565b600060208201905061046e600083018461044a565b92915050565b600080fd5b61048281610440565b811461048d57600080fd5b50565b60008135905061049f81610479565b92915050565b6000602082840312156104bb576104ba610474565b5b60006104c984828501610490565b91505092915050565b600073ffffffffffffffffffffffffffffffffffffffff82169050919050565b60006104fd826104d2565b9050919050565b61050d816104f2565b82525050565b60006020820190506105286000830184610504565b92915050565b6000610539826104d2565b9050919050565b6105498161052e565b82525050565b60006020820190506105646000830184610540565b92915050565b7f596f7520617265206e6f7420617574686f72697a656420746f2061636365737360008201527f2074686973206669656c642e0000000000000000000000000000000000000000602082015250565b60006105c6602c8361030b565b91506105d18261056a565b604082019050919050565b600060208201905081810360008301526105f5816105b9565b905091905056fea26469706673582212205cbd2412b49aea7d14aa8ec718cf11cfb123d6a983bd0204b7643ca1caa353bb64736f6c634300080e0033",
  "immutableReferences": {},
  "source": "//SPDX-License-Identifier: UNLICENSED\r\n\r\npragma solidity >= 0.5.0 < 0.9.0;\r\n\r\ncontract Lottery {\r\n    address public manager;\r\n    address payable[] public participants;\r\n\r\n    constructor(){\r\n        manager = msg.sender; // global variable\r\n    }\r\n\r\n    receive() external payable {\r\n        require(msg.sender != manager,\"Manager cannot participate in lottery.\");\r\n        require(msg.value == 1 ether, \"Minimum amount to participate is 1 ether\");\r\n        participants.push(payable(msg.sender));\r\n    }\r\n    function getBalance() public view returns(uint){\r\n        require(msg.sender == manager, \"You are not authorized to access this field.\");\r\n        return address(this).balance;\r\n    }\r\n}",
  "sourcePath": "C:\\Users\\Manraj\\Desktop\\solidity\\contracts\\lottery.sol",
  "compiler": {
    "name": "solc",
    "version": "0.8.14+commit.80d49f37.Emscripten.clang"
  },
  "schemaVersion": "3.4.7",
  "updatedAt": "2022-06-01T07:16:45.335Z",
  "devdoc": {
    "kind": "dev",
    "methods": {},
    "version": 1
  },
  "userdoc": {
    "kind": "user",
    "methods": {},
    "version": 1
  }
}